:100000000C9434000C9451000C9451000C94510049
:100010000C9451000C9451000C9451000C9451001C
:100020000C9451000C9451000C9451000C9451000C
:100030000C9451000C9451000C9451000C945100FC
:100040000C9451000C9451000C9451000C945100EC
:100050000C9451000C9451000C9451000C945100DC
:100060000C9451000C94510011241FBECFEFD8E026
:10007000DEBFCDBF11E0A0E0B1E0EAEAF1E102C0ED
:1000800005900D92A837B107D9F721E0A8E7B1E0B4
:1000900001C01D92AD3AB207E1F70E9445030C94EE
:1000A000D3080C940000609184007091850090E06A
:1000B00080E00E94C80420E030E040E850E40E9464
:1000C0007A0522E539E44DE151E40E9427040E94BB
:1000D0009904CB010895CF93DF935D9A81E28A95CD
:1000E000F1F75D981A9BFECF0E945300EC011A991C
:1000F000FECF0E9453008C1B9D0BBC0190E080E062
:100100000E94C8042BEA3AEA44E65BE30E947A05BF
:1001100020E030E040E050E40E942204881F88275D
:10012000881FDF91CF910895E8E8F0E081EE94E038
:10013000918380832FEF8FEF9DE12150804090408D
:10014000E1F700C0000080E792E09183808308958A
:10015000813071F482E3809379018093780184E6A1
:1001600080937A0161E070E088E791E00C940602E8
:10017000823041F48FEF80937901109278011092D0
:100180007A01F0CF833031F4109279011092780126
:100190008FEFE6CF843031F7109279018FEF8093A3
:1001A0007801EDCFE8E7F1E011821082128261E080
:1001B00070E0CF010C94060297FF02C05A98089590
:1001C0005A9A08954C9910C08FEF9FE20197F1F76A
:1001D00000C000004C9BFECF8FEF9FE20197F1F72C
:1001E00000C0000081E0089580E008954F9910C09C
:1001F0008FEF9FE20197F1F700C000004F9BFECF09
:100200008FEF9FE20197F1F700C0000081E00895B1
:1002100080E00895189910C08FEF9FE20197F1F7E1
:1002200000C00000189BFECF8FEF9FE20197F1F70F
:1002300000C0000081E0089580E008958FE390E021
:100240009093C5008093C400E1ECF0E08081886069
:10025000808380818061808386E08093C2000895DE
:100260009091C00095FFFCCF8093C6000895CF9376
:10027000DF93EC01899118161CF0DF91CF9108955E
:100280000E943001F7CF8091C00087FFFCCF8091A2
:10029000C60008950F931F93CF938C010E944301D2
:1002A000C0E0F801EC0FF11DCF5F80838A3051F47C
:1002B00011828091C00087FD08C08C2FCF911F91C3
:1002C0000F9108950E944301ECCF8091C600F1CFB9
:1002D00060E071E08BE791E00E94E7058BE791E039
:1002E0000E9437018FEF9FEB0197F1F700C00000EC
:1002F00008950E941E018FEF9FE50197F1F700C05E
:1003000000006EE671E08BE791E00E94E7058BE765
:1003100091E00E9437018FEF9FE50197F1F700C050
:10032000000068E271E08BE791E00E94E7058BE74F
:1003300091E00E9437018FEF9FE50197F1F700C030
:10034000000067E371E08BE791E00E94E7058BE72F
:1003500091E00E9437010C946801CF93C82F65E5A6
:1003600071E08BE791E00E94E7058BE791E00E9446
:1003700037018C2F0C2E000C990B9F93CF9385E6A1
:1003800091E09F938F931F9282E38F938BE791E08D
:100390009F938F930E94EE058DB79EB708960FB678
:1003A000F8949EBF0FBE8DBF8BE791E0CF910C9468
:1003B00037012AB1242B2AB93BB1242F20952323BE
:1003C0003BB1432B3FB7F894FC01680F791FE61748
:1003D000F70711F43FBF0895819198E04BB90000F1
:1003E00087FF2BB9880F07F407F42BB99A95B1F75B
:1003F000EECF9B01220F331F620F731F0E94D901A2
:1004000081EE92E00197F1F70000089540E40C942A
:10041000F901660F771F660F771F40E40E94D9012C
:1004200081EE92E00197F1F70000089540E40C940A
:10043000D901CF92DF92EF92FF920F931F93A82FD3
:100440004115510521F40115110509F4A8C084EAEC
:100450008093BC008091BC0087FFFCCF8091B900E5
:10046000887F883009F06BC08A2F8E7F8093BB0015
:1004700084E88093BC008091BC0087FFFCCF809112
:10048000B900887F8831D1F0803209F058C094E9F2
:100490009093BC0054C081918093BB006093BC00DA
:1004A0008091BC0087FFFCCF8091B900887F8832A3
:1004B00049F0803309F043C080E3E9CFFB01460FE8
:1004C000571F64E84E175F0731F7F901020F131F3A
:1004D00024E80EC081918093BB002093BC008091E2
:1004E000BC0087FFFCCF8091B900887F883209F774
:1004F0000E171F0779F720E1C114D10411F43BC096
:1005000028E084EA8093BC008091BC0087FFFCCF88
:100510008091B900887F281312C0A160A093BB000E
:1005200084E88093BC008091BC0087FFFCCF809161
:10053000B900887F803451F0883409F4A8CF1F9126
:100540000F91FF90EF90DF90CF900895F70194EC1A
:1005500081E0C816D10489F484E88093BC008091BE
:10056000BC0087FFFCCF8091B900887F883539F7C0
:100570008091BB00808380E08ACF9093BC00809103
:10058000BC0087FFFCCF8091B900887F21E0C21AB0
:10059000D1088035A1F68091BB008193D9CFC114D9
:1005A000D10409F0ADCF80E0CACFCF92DF92EF92B5
:1005B000FF920F931F93CF93DF9300D000D0CDB75E
:1005C000DEB785E8898386E88A8382E0C82ED12C4D
:1005D000CE0103967C0110E000E030E020E042E034
:1005E00050E0BE016F5F7F4F87E20E9419022B81AE
:1005F00090E1299F900111248C81282B81E0293BD7
:100600003B400CF480E00F900F900F900F90DF9123
:10061000CF911F910F91FF90EF90DF90CF900895B1
:10062000CF92DF92EF92FF920F931F93CF93DF93BE
:1006300000D0CDB7DEB71092B9008AE28093B8003F
:1006400080E8898388E08A83D12CC12CF12CE12CAD
:1006500001E010E09E012E5F3F4F41E050E0BE01FF
:100660006F5F7F4F86E20E9419020F900F90DF911B
:10067000CF911F910F91FF90EF90DF90CF90089551
:100680001092B9008093B8000895CF93DF93CDB74F
:10069000DEB764970FB6F894DEBF0FBECDBF549897
:1006A000579820988BB180698BB9289A219A559ACE
:1006B00022982A9A8091800082688093800080919D
:1006C00081008A61809381008FE39CE99093870089
:1006D000809386000E941E0110E0CE0101967C01ED
:1006E00004E1111161C00E940A018823D9F0EFEFE3
:1006F000FFEB3197F1F700C0000084E00E94A800F2
:100700009FEFEFEFFEE09150E040F040E1F700C0D6
:10071000000088E19CEF0E94DC000E94940088EEBB
:1007200093E01EC00E94F6008823E9F08FEF9FEB54
:100730000197F1F700C0000083E00E94A8009FEF3E
:10074000EFEFFEE09150E040F040E1F700C0000024
:1007500088EE93E00E94DC000E94940088E19CEF08
:100760000E94DC0018C00E94E200882329F1EFEF0C
:10077000FFEB3197F1F700C0000082E00E94A80073
:100780009FEFEFEFFEE09150E040F040E1F700C056
:1007900000000E9494000E94D2008FEF9FEB01970F
:1007A000F1F700C000009FCF1130A1F0123029F303
:1007B000133009F0A2CFC0CF0E946B00882369F3E9
:1007C00089E691E00E9437018FEF9FEB0197F1F7E7
:1007D00000C0000081E00E94A8008091C00087FF57
:1007E00020C0C7010E944A0196E6E6EEF0E0915073
:1007F000E040F040E1F7898113E0833621F014E016
:10080000823709F012E0F701202F11922A95E9F7BB
:100810000E94D2008FEF9FEB0197F1F700C000001C
:1008200060CF0E940A01811162CF0E94F6008111FF
:100830007DCF0E94E20081119ACFEFEFFFEB31975D
:10084000F1F7C6CF0E94050508F481E008950E94E3
:100850003B040C9440050E94390558F00E94320573
:1008600040F029F45F3F29F00C94290551110C94B4
:1008700074050C942F050E94510568F39923B1F378
:10088000552391F3951B550BBB27AA2762177307B6
:10089000840738F09F5F5F4F220F331F441FAA1F4A
:1008A000A9F335D00E2E3AF0E0E832D09150504006
:1008B000E695001CCAF72BD0FE2F29D0660F771FB4
:1008C000881FBB1F261737074807AB07B0E809F09A
:1008D000BB0B802DBF01FF2793585F4F3AF09E3F1F
:1008E000510578F00C9429050C9474055F3FE4F3EE
:1008F000983ED4F3869577956795B795F7959F5F62
:10090000C9F7880F911D9695879597F90895E1E0AD
:10091000660F771F881FBB1F621773078407BA070C
:1009200020F0621B730B840BBA0BEE1F88F7E09567
:1009300008950E94590588F09F5798F0B92F99277C
:10094000B751B0F0E1F0660F771F881F991F1AF0BA
:10095000BA95C9F714C0B13091F00E947305B1E0A7
:1009600008950C947305672F782F8827B85F39F0A6
:10097000B93FCCF3869577956795B395D9F73EF453
:1009800090958095709561957F4F8F4F9F4F0895FB
:10099000E89409C097FB3EF4909580957095619519
:1009A0007F4F8F4F9F4F9923A9F0F92F96E9BB27CF
:1009B0009395F695879577956795B795F111F8CF4B
:1009C000FAF4BB0F11F460FF1BC06F5F7F4F8F4FB6
:1009D0009F4F16C0882311F096E911C0772321F0AC
:1009E0009EE8872F762F05C0662371F096E8862F44
:1009F00070E060E02AF09A95660F771F881FDAF79B
:100A0000880F9695879597F90895990F0008550FC7
:100A1000AA0BE0E8FEEF16161706E807F907C0F084
:100A200012161306E407F50798F0621B730B840B8C
:100A3000950B39F40A2661F0232B242B252B21F466
:100A400008950A2609F4A140A6958FEF811D811D06
:100A5000089597F99F6780E870E060E008959FEF40
:100A600080EC089500240A94161617061806090645
:100A7000089500240A941216130614060506089514
:100A8000092E0394000C11F4882352F0BB0F40F49C
:100A9000BF2B11F460FF04C06F5F7F4F8F4F9F4FDC
:100AA000089557FD9058440F551F59F05F3F71F05E
:100AB0004795880F97FB991F61F09F3F79F08795C5
:100AC0000895121613061406551FF2CF4695F1DF4E
:100AD00008C0161617061806991FF1CF86957105DE
:100AE000610508940895E894BB2766277727CB0112
:100AF00097F908950E948D050C9440050E943205D7
:100B000038F00E94390520F0952311F00C94290546
:100B10000C942F0511240C9474050E94510570F358
:100B2000959FC1F3950F50E0551F629FF001729F92
:100B3000BB27F00DB11D639FAA27F00DB11DAA1FA1
:100B4000649F6627B00DA11D661F829F2227B00DEE
:100B5000A11D621F739FB00DA11D621F839FA00D79
:100B6000611D221F749F3327A00D611D231F849FC9
:100B7000600D211D822F762F6A2F11249F57504020
:100B80009AF0F1F088234AF0EE0FFF1FBB1F661F9B
:100B9000771F881F91505040A9F79E3F510580F064
:100BA0000C9429050C9474055F3FE4F3983ED4F34C
:100BB000869577956795B795F795E7959F5FC1F708
:100BC000FE2B880F911D9695879597F90895FB0147
:100BD000DC0101900D920020E1F70895AEE0B0E055
:100BE000E4EFF5E00C94AA080D891E898F89988D91
:100BF00026E02C831A83098397FF02C080E090E8E7
:100C000001979E838D83AE01455E5F4F698D7A8D1E
:100C1000CE0101960E941E064D815E8157FD0AC0DD
:100C20002F813885421753070CF49A01020F131FC6
:100C3000F80110822E96E4E00C94C608ABE0B0E018
:100C4000E4E2F6E00C949C087C013B018A01FC0183
:100C500017821682838181FFC8C1CE0101965C0193
:100C6000F7019381F30193FD859193FF81913F01FA
:100C7000882309F453C1853239F493FD859193FF9C
:100C800081913F01853229F4B70190E00E940E085E
:100C9000E7CF912C212C312CFFE1F31538F08B326A
:100CA00011F190F4803209F1833229F137FC3CC014
:100CB00020ED280F2A3050F536FE20C08AE0989E9D
:100CC000200D1124922E06C08D3291F0803371F7E1
:100CD000689430F8F30193FD859193FF81913F0172
:100CE0008111DACF21C0689431F8689432F8F2CFDC
:100CF000689433F8EFCF689434F8ECCFEAE02E9E96
:100D0000200D1124222E689435F8E4CF8E3229F478
:100D100036FC04C1689436F8DDCF8C3619F468943B
:100D200037F8D8CF8836B1F2982F9F7D95549330FD
:100D3000E0F08336A1F18337C1F1833509F063C058
:100D40002801F2E04F0E511CF801C080D180692DBE
:100D500070E036FC02C06FEF7FEFC6010E94F8071B
:100D60004C01689437F882010AC00C5F1F4FFFE303
:100D7000F98388248394912C6501E89437F833FE35
:100D80002DC0522C8114910471F5552009F468CFBF
:100D9000B70180E290E00E940E085A94F6CFF80165
:100DA000808189830E5F1F4FE4CF2801F2E04F0E50
:100DB000511CF801C080D180692D70E036FC02C062
:100DC0006FEF7FEFC6010E9403084C018201D5CF6F
:100DD000B70180E290E00E940E082A9428141904BA
:100DE00009F0B0F7CECFF60137FC859137FE81913F
:100DF0006F01B70190E00E940E0851105A94F1E083
:100E00008F1A9108BFCF843619F0893609F077C060
:100E1000F80137FE6BC060817181828193810C5F24
:100E20001F4FF32DFF763F2E97FF09C090958095B9
:100E3000709561957F4F8F4F9F4F689437F82AE0E8
:100E400030E0A5010E943E08C82ECA188C2C432C05
:100E500036FE0CC0E89440F8C91440F434FE05C0D6
:100E600032FC03C0F32DFE7E4F2E892C44FE95C02C
:100E7000FE01EC0DF11D8081803309F087C0242D27
:100E8000297E422E842D8870582E43FC95C040FE4A
:100E90008FC09C2C821418F42C0C922C981844FEB1
:100EA00091C0B70180E390E00E940E0842FE09C0A5
:100EB00088E790E041FE02C088E590E0B7010E941B
:100EC0000E08C91408F48AC0CA94D12C9FEFC91A1D
:100ED000D90ACA0CDB1CF60182916F01B70190E0C0
:100EE0000E940E08AC14BD04B1F74FCF6081718130
:100EF000072E000C880B990B0E5F1F4F92CFD32C3F
:100F0000E894D4F82AE030E0853739F1232D297FA1
:100F1000D22E8F3601F148F48835A9F0F701868189
:100F200097812B96E2E10C94B808803749F0883716
:100F3000A9F7D4FE02C06894D2F820E130E00DC0D9
:100F40006894D4F8F6CF34FE03C0822F8660D82E82
:100F500020E132E002C028E030E0F801D7FE0FC007
:100F600060817181828193810C5F1F4FA5010E9476
:100F70003E08C82ECA183D2CE89437F867CF608128
:100F8000718190E080E00E5F1F4FF0CF42FC02C005
:100F9000839478CF8394839475CF842D867809F4D5
:100FA00071CFF6CFB70180E290E00E940E088394E3
:100FB0008214C0F3512C73CF522C5818821408F4A9
:100FC0006ECFF8CF842D867809F47BCF8BE241FE7B
:100FD00080E247FC8DE2B70190E071CFB70180E37A
:100FE00090E00E940E089A946CCF8FEF9FEF99CFFC
:100FF000FC010590615070400110D8F780959095E4
:101000008E0F9F1F0895FC016150704001900110E8
:10101000D8F7809590958E0F9F1F08950F931F937B
:10102000CF93DF93182F092FEB018B8181FD09C02E
:101030001FEF0FEF812F902FDF91CF911F910F9115
:10104000089582FF14C02E813F818C819D812817D5
:1010500039073CF4E881F981CF01019699838883AF
:1010600010838E819F8101969F838E83E3CFE885D5
:10107000F985812F0995892BA1F3DACFFA01AA27E7
:10108000283051F1203181F1E8946F936E7F6E5FCB
:101090007F4F8F4F9F4FAF4FB1E03ED0B4E03CD079
:1010A000670F781F891F9A1FA11D680F791F8A1F5C
:1010B000911DA11D6A0F711D811D911DA11D20D0C3
:1010C00009F468943F912AE0269F11243019305D7D
:1010D0003193DEF6CF010895462F4770405D41936E
:1010E000B3E00FD0C9F7F6CF462F4F70405D4A33BB
:1010F00018F0495D31FD4052419302D0A9F7EACF83
:10110000B4E0A6959795879577956795BA95C9F7B1
:1011100000976105710508959B01AC010A2E0694A4
:101120005795479537952795BA95C9F7620F731F5D
:10113000841F951FA01D08952F923F924F925F929A
:101140006F927F928F929F92AF92BF92CF92DF92D7
:10115000EF92FF920F931F93CF93DF93CDB7DEB73C
:10116000CA1BDB0B0FB6F894DEBF0FBECDBF0994D0
:101170002A88398848885F846E847D848C849B8427
:10118000AA84B984C884DF80EE80FD800C811B8135
:10119000AA81B981CE0FD11D0FB6F894DEBF0FBE64
:0A11A000CDBFED010895F894FFCFD4
:1011AA0041542B43495053544152543D22544350C5
:1011BA00222C223137322E32302E31302E33222C4D
:1011CA00353033300D0A000041542B43574D4F44FC
:1011DA00453D310D0A000041542B43574A41503DC9
:1011EA002273736964222C2270617373776F72643D
:1011FA00220D0A000041542B43495053454E443DA9
:10120A00310D0A000025640000676F0D0A00415481
:08121A002B5253540D0A000091
:00000001FF
